:100000000C9463000C948B000C948B000C948B006C
:100010000C948B000C948B000C948B000C948B0034
:100020000C948B000C948B000C948B000C948B0024
:100030000C948B000C948B000C948B000C948B0014
:100040000C94F0050C948B000C9469080C94AC088B
:100050000C948B000C948B000C948B000C948B00F4
:100060000C948B000C948B00000000070002010030
:100070000003040600000000000000000102040864
:100080001020408001020408102001020408102002
:10009000040404040404040402020202020203032E
:1000A00003030303000000002300260029000000D2
:1000B0000000250028002B0000000000240027007D
:1000C0002A00D801680911241FBECFEFD8E0DEBF97
:1000D000CDBF11E0A0E0B1E0E6E0F4E102C00590A0
:1000E0000D92A23EB107D9F722E0A2EEB1E001C025
:1000F0001D92A93DB207E1F710E0C6ECD0E004C0C4
:100100002297FE010E94EF09C23CD107C9F70E9465
:10011000BE090C94010A0C9400004F925F926F92FA
:100120007F928F929F92AF92BF92CF92DF92EF9287
:10013000FF920F931F93CF93DF93CDB7DEB76697F0
:100140000FB6F894DEBF0FBECDBF40E855E260E0C9
:1001500070E08FE292E00E94E70862E171E08FE2D6
:1001600092E00E94190782EE91E00E94880382EEDD
:1001700091E00E94A2036B017C016115710581056C
:10018000910539F469E171E08FE292E00E94FC068A
:10019000FFCF61E371E08FE292E00E94FC064F2DF9
:1001A00055276627772720E130E08FE292E00E9412
:1001B000C50760E471E08FE292E00E94FC064E2DDC
:1001C00050E060E070E02AE030E08FE292E00E94D0
:1001D00084076EE28FE292E00E94FE064D2D50E011
:1001E00060E070E02AE030E08FE292E00E94C50714
:1001F0006FE471E08FE292E00E94FC06B701A60175
:1002000055276627772720E130E08FE292E00E94B1
:10021000C50782EE91E00E94E40364E670E080E0AE
:1002200090E00E945D0660E082EE91E00E94A404EE
:100230002B013C0164E670E080E090E00E945D06E6
:10024000411451046104710409F494C069E571E03A
:100250008FE292E00E94FC062AE030E0B301A201A6
:100260008FE292E00E94C5078FE292E00E940507AC
:1002700086E0ECE0F1E0DE01519601900D928A9566
:10028000E1F7A12CB12C4E0181E1880E911C1A2DB1
:100290006401EE24E3940A2DA301920161E082EE51
:1002A00091E00E940A04672B682B692B09F45AC05D
:1002B0009E012F5F3F4F4A2D61E082EE91E00E9448
:1002C0006404672B682B692B09F44CC0FE0131963E
:1002D0007F01670140E150E0F70161917F018FE20A
:1002E00092E00E949107F6018081803118F465E662
:1002F00071E002C066E671E08FE292E00E94FC06C7
:10030000E814F90431F768E671E08FE292E00E94A8
:10031000FC061A3030F466E671E08FE292E00E944B
:10032000FC064AE050E0612F8FE292E00E949107C4
:1003300061E771E08FE292E00E94FC06111103C0B8
:1003400065E771E00BC0C501019683709927892B81
:1003500019F468E871E002C067E971E08FE292E0A9
:100360000E941907FFEFAF1ABF0A80E4A816B10474
:1003700009F08DCF60ED77E080E090E00E945D06AF
:1003800066960FB6F894DEBF0FBECDBFDF91CF915A
:100390001F910F91FF90EF90DF90CF90BF90AF90A3
:1003A0009F908F907F906F905F904F9008950895E9
:1003B0000F930AE02BE04CE06DE082EE91E00E94AA
:1003C000E3010F9108950F93CF93DF93EC01802FFA
:1003D00069834B832A83088361E00E94580561E0AA
:1003E00089810E94580561E08A810E94580560E079
:1003F0008B81DF91CF910F910C945805EF92FF9272
:100400000F931F93CF93DF93EC01E62E61E0898178
:100410000E94910500E010E0F12C60E089810E94CB
:100420009105C701002E02C0959587950A94E2F7C1
:1004300080FF02C061E001C060E08A810E949105F6
:1004400061E089810E9491050F5F1F4F08301105FF
:1004500021F7DF91CF911F910F91FF90EF900895B9
:10046000AF92BF92CF92DF92EF92FF920F931F93C2
:10047000CF93DF93EC016B01042F0F5F60E0888165
:100480000E94910562E070E080E090E00E945D06CD
:1004900061E0CE010E94FE0160E0CE010E94FE01FB
:1004A00060E0CE010E94FE016FEFCE010E94FE01CE
:1004B000602FCE010E94FE01602F6195CE010E9447
:1004C000FE0164EDCE010E94FE01A12C83EDB82E49
:1004D00010E001501109EA2CF12CE016F10664F449
:1004E000EC0CFD1CF7016081CE010E94FE01F701BA
:1004F0008081B80EA394EFCF6B2D6095CE010E9442
:10050000FE0160E0CE010E94FE0161E08881DF9182
:10051000CF911F910F91FF90EF90DF90CF90BF9000
:10052000AF900C949105DF92EF92FF920F931F937F
:10053000CF93DF93EC0161E089810E94910500E097
:1005400010E0D12CEE24E394F12C8B810E94C7059E
:10055000892B39F09701002E01C0220F0A94EAF787
:10056000D22A60E089810E94910561E089810E9420
:1005700091050F5F1F4F0830110539F78D2DDF9161
:10058000CF911F910F91FF90EF90DF9008951F93EF
:10059000CF93DF93EC0160E088810E94910562E0D7
:1005A00070E080E090E00E945D0662E0CE010E9473
:1005B000FE01CE010E949302182F61E088810E9403
:1005C0009105812FDF91CF911F910895CF92DF92F6
:1005D000EF92FF920F931F93CF93DF938C01F62E30
:1005E000D72EE42E60E0FC0180810E94910562E03C
:1005F00070E080E090E00E945D0663E0C8010E9428
:10060000FE01CF2CCF2DDD2D8C2F8C198E1558F49B
:1006100061E070E080E090E00E945D06C8010E9409
:1006200093028993F1CF61E0F8018081DF91CF914E
:100630001F910F91FF90EF90DF90CF900C94910558
:10064000CF93DF9300D000D000D0CDB7DEB746E027
:10065000BE016F5F7F4F0E94E60246E050E066E019
:1006600071E0CE0101960E94F30921E0892B09F087
:1006700020E0822F26960FB6F894DEBF0FBECDBFC6
:10068000DF91CF910895EF92FF920F931F93CF9335
:10069000DF93EC0189010E943002E12CF12CCE01A4
:1006A0000E94C702813081F00115110531F08AE006
:1006B000E80EF11C0E151F0518F16AE070E080E0ED
:1006C00090E00E945D06EBCFCE010E9420038823BC
:1006D000B9F0E12CF12CCE010E94C702813089F0E3
:1006E0000115110531F08AE0E80EF11C0E151F0509
:1006F00038F06AE070E080E090E00E945D06EBCFA9
:1007000080E0DF91CF911F910F91FF90EF900895BE
:10071000CF93DF93EC0160E088810E94910568EE41
:1007200073E080E090E00E945D0682E08093E60145
:1007300028EE33E041E066EE71E0CE01DF91CF912B
:100740000C944303CF93DF93EC0182E08093E601A6
:1007500028EE33E041E066EE71E0CE010E944303F3
:10076000811104C060E070E0CB012BC04CE066EE6C
:1007700071E0CE010E94E60246E050E060E071E0E8
:1007800086EE91E00E94F309892B61F76091EC01FC
:10079000862F90E0A0E0B0E0BA2FA92F982F8827ED
:1007A0002091ED01822BBA2FA92F982F8827209115
:1007B000EE01822B6627782F892F9A2F2091EF0147
:1007C000622BDF91CF910895CF93DF93EC0194E1F9
:1007D0009093E60181E08093E7019093E801809394
:1007E000E90128EE33E044E066EE71E0CE010E94BC
:1007F0004303882359F048E066EE71E0CE010E9481
:10080000E60281E09091EB01953109F080E0DF9103
:10081000CF910895CF92DF92EF920F93CF93DF9312
:10082000EC01F60180E48093E6016093E70181E04A
:10083000E81202C080E601C081E68093E8010093DF
:10084000E90180818093EA0181818093EB018281BB
:100850008093EC0183818093ED0184818093EE018C
:1008600085818093EF015093F0014093F101309323
:10087000F2012093F30128EE33E04EE066EE71E0E2
:10088000CE010E9443038823A1F048E066EE71E0A8
:10089000CE010E94E6028091EC01813451F461E0C6
:1008A00070E080E090E02091ED01222331F060E0E3
:1008B00004C060E070E080E090E0DF91CF910F91A4
:1008C000EF90DF90CF9008950F931F93CF93DF9316
:1008D000EC01890180E48093E6016093E70180E305
:1008E0008093E8014093E90128EE33E044E066EEAE
:1008F00071E0CE010E9443038823E9F048E166EEEF
:1009000071E0CE010E94E602AEEEB1E0F8018D91F9
:10091000819381E0AE3FB807D1F78091EC0181343B
:1009200051F461E070E080E090E02091ED0122233D
:1009300031F060E004C060E070E080E090E0DF91C2
:10094000CF911F910F910895CF92DF92EF92FF9276
:100950001F93CF93DF93EC018AE48093E60181E05B
:100960008093E7016093E80128EE33E043E066EE10
:1009700071E0CE010E944303811105C060E070E088
:1009800080E090E064C044E166EE71E0CE010E9438
:10099000E60262EA71E08FE292E00E94FC064AE021
:1009A00050E06091ED018FE292E00E94910769EAC8
:1009B00071E08FE292E00E9419078091ED01813091
:1009C000E9F6C091EF01D0E0DC2FCC278091F00157
:1009D000C82B6FEA71E08FE292E00E94FC0640E1D2
:1009E00050E0BE018FE292E00E94AF0761EC71E03F
:1009F0008FE292E00E94FC0640E150E06091F1013C
:100A00008FE292E00E94980710E0C12CD12C760171
:100A10008091F2011817C8F4FE2CED2CDC2CCC24AC
:100A2000C12FD0E0CD50DE4F8881C82A6EEC71E036
:100A30008FE292E00E94FC0640E150E068818FE284
:100A400092E00E9491071F5FE3CFB601C701DF91DB
:100A5000CF911F91FF90EF90DF90CF90089583305A
:100A600081F028F4813099F08230A1F00895863029
:100A7000A9F08730B9F08430D1F4809180008F7D67
:100A800003C0809180008F7780938000089584B5A3
:100A90008F7702C084B58F7D84BD08958091B000AA
:100AA0008F7703C08091B0008F7D8093B000089550
:100AB000CF93DF9390E0FC01E458FF4F2491FC01B9
:100AC000E057FF4F8491882349F190E0880F991FE8
:100AD000FC01E854FF4FA591B49182559F4FFC0152
:100AE000C591D4919FB7611108C0F8948C9120955D
:100AF00082238C93888182230AC0623051F4F89457
:100B00008C91322F309583238C938881822B88831C
:100B100004C0F8948C91822B8C939FBFDF91CF916E
:100B200008950F931F93CF93DF931F92CDB7DEB736
:100B3000282F30E0F901E859FF4F8491F901E4587A
:100B4000FF4F1491F901E057FF4F04910023C9F0C2
:100B5000882321F069830E942F056981E02FF0E04E
:100B6000EE0FFF1FE255FF4FA591B4919FB7F89488
:100B70008C91611103C01095812301C0812B8C934E
:100B80009FBF0F90DF91CF911F910F910895CF9349
:100B9000DF93282F30E0F901E859FF4F8491F901E4
:100BA000E458FF4FD491F901E057FF4FC491CC2393
:100BB00091F081110E942F05EC2FF0E0EE0FFF1F46
:100BC000EC55FF4FA591B4912C912D2381E090E03D
:100BD00021F480E002C080E090E0DF91CF910895A1
:100BE0001F920F920FB60F9211242F933F938F9362
:100BF0009F93AF93BF938091270290912802A09179
:100C00002902B0912A023091260223E0230F2D37CA
:100C100020F40196A11DB11D05C026E8230F029600
:100C2000A11DB11D209326028093270290932802D4
:100C3000A0932902B0932A0280912B0290912C025A
:100C4000A0912D02B0912E020196A11DB11D80939D
:100C50002B0290932C02A0932D02B0932E02BF91F1
:100C6000AF919F918F913F912F910F900FBE0F9059
:100C70001F9018953FB7F89480912B0290912C0209
:100C8000A0912D02B0912E0226B5A89B05C02F3F42
:100C900019F00196A11DB11D3FBF6627782F892F3E
:100CA0009A2F620F711D811D911D42E0660F771F03
:100CB000881F991F4A95D1F70895CF92DF92EF923E
:100CC000FF92CF93DF936B017C010E943A06EB0108
:100CD000C114D104E104F10479F00E943A066C1BBE
:100CE0007D0B683E7340A0F381E0C81AD108E1088B
:100CF000F108C851DC4FECCFDF91CF91FF90EF901E
:100D0000DF90CF900895789484B5826084BD84B5D7
:100D1000816084BD85B5826085BD85B5816085BDF6
:100D2000EEE6F0E0808181608083E1E8F0E010820F
:100D3000808182608083808181608083E0E8F0E050
:100D4000808181608083E1EBF0E08081846080833A
:100D5000E0EBF0E0808181608083EAE7F0E0808171
:100D600084608083808182608083808181608083D1
:100D70008081806880831092C1000895CF92DF92B5
:100D8000EF92FF920F931F93CF93DF936C017A0141
:100D9000EB01E60EF71E00E010E0CE15DF0561F076
:100DA0006991D601ED91FC910190F081E02DC60191
:100DB0000995080F191FF1CFC801DF91CF911F913D
:100DC0000F91FF90EF90DF90CF900895611571051E
:100DD00081F0DB010D900020E9F7AD014150510990
:100DE000461B570BDC01ED91FC910280F381E02D55
:100DF000099480E090E008950C94E606DC01ED9102
:100E0000FC910190F081E02D09940F931F93CF93F3
:100E1000DF93EC016DE00E94FE068C016AE0CE01DA
:100E20000E94FE06800F911FDF91CF911F910F91BD
:100E300008950F931F93CF93DF93EC010E94E60672
:100E40008C01CE010E940507800F911FDF91CF9189
:100E50001F910F9108958F929F92AF92BF92CF9260
:100E6000DF92EF92FF920F931F93CF93DF93CDB753
:100E7000DEB7A1970FB6F894DEBF0FBECDBF7C01E1
:100E8000C42EE52FCB01D22E19A221E02D1510F092
:100E90002AE0D22E8E010F5D1F4F8D2C912CA12C9C
:100EA000B12C6C2D7E2FA50194010E94CB098C2DB5
:100EB000D29E80191124015011098A3014F4805DEA
:100EC00001C0895CF8018083211531054105510578
:100ED00021F0C22EE32FCA01E4CFB801C7010E945E
:100EE000E606A1960FB6F894DEBF0FBECDBFDF9128
:100EF000CF911F910F91FF90EF90DF90CF90BF9017
:100F0000AF909F908F9008952115310541F4DC0139
:100F1000ED91FC910190F081E02D642F09940C94E7
:100F20002B079A01462F50E060E070E00C94840794
:100F30000F931F93CF93DF93EC019A01462F50E05C
:100F400060E070E00E9484078C01CE010E940507DA
:100F5000800F911FDF91CF911F910F9108950F93F3
:100F60001F93CF93DF93EC019A01AB0160E070E037
:100F70000E9484078C01CE010E940507800F911FFB
:100F8000DF91CF911F910F9108950F931F93CF93EE
:100F9000DF93EC010E9484078C01CE010E940507BB
:100FA000800F911FDF91CF911F910F910895FC0148
:100FB00024853585F901E05CFF4F8081918132966F
:100FC00020813181821B930B8F7399270895FC0137
:100FD00084859585FC01E05CFF4F4081518132960C
:100FE000208131814217530741F00190F081E02DBB
:100FF000E80FF91F808190E008958FEF9FEF08952B
:10100000FC0184859585FC01E05CFF4F40815181A6
:101010003296208131814217530779F0A081B18146
:10102000A80FB91F8C91208131812F5F3F4F2F7303
:1010300033273183208390E008958FEF9FEF089549
:10104000FC0181A1882329F0A489B5898C9186FFB0
:10105000FBCF11A20895CF93DF93FC01268537853E
:10106000D901A05CBF4F8D919C91119701968F7310
:101070009927E901CE5BDF4F488159818417950795
:10108000D9F30D90BC91A02DA20FB31F6C93A68530
:10109000B785A05CBF4F11969C938E93A689B789A4
:1010A0002C9181E090E0078C02C0880F991F0A9470
:1010B000E2F7282B2C9381E081A30488F589E02DA9
:1010C00080818064808381E090E0DF91CF910895FA
:1010D00008951F920F920FB60F9211242F933F93F2
:1010E0004F938F939F93EF93FF938091C00082FD66
:1010F0001CC04091C6008091D5029091D602019605
:101100008F7399272091D7023091D80282179307C5
:1011100071F0E091D502F091D602EB56FD4F40837D
:101120009093D6028093D50202C08091C600FF91B1
:10113000EF919F918F914F913F912F910F900FBE03
:101140000F901F9018958FE292E00E94D707892B8D
:1011500011F00C94680808951F920F920FB60F9229
:1011600011242F933F938F939F93EF93FF9320919D
:1011700091023091920280919302909194022817EB
:10118000390731F48091C1008F7D8093C10014C074
:10119000E0919302F0919402EF5AFD4F20818091EB
:1011A00093029091940201968F73992790939402E1
:1011B000809393022093C600FF91EF919F918F91AE
:1011C0003F912F910F900FBE0F901F901895CF92C7
:1011D000DF92EF92FF92CF93DF93EC016A017B01E4
:1011E000411581EE580761057105F9F0EC89FD891B
:1011F00081E090E008A002C0880F991F0A94E2F7EE
:10120000808360E079E08DE390E0A70196010E9481
:10121000CB09215031094109510956954795379518
:101220002795211580E1380798F0EC89FD89108217
:1012300060E874E88EE190E0A70196010E94CB0976
:101240002150310941095109569547953795279500
:10125000E889F9893083EA89FB89208319A2EE891C
:10126000FF89408181E090E09C010C8C02C0220F3C
:10127000331F0A94E2F7422B4083EE89FF894081B5
:101280009C010D8C02C0220F331F0A94E2F7422BFF
:101290004083EE89FF8940819C010E8C02C0220FA1
:1012A000331F0A94E2F7422B4083EE89FF892081A5
:1012B0000F8C02C0880F991F0A94E2F78095822351
:1012C0008083DF91CF91FF90EF90DF90CF900895D2
:1012D000109232021092310288EE93E0A0E0B0E06A
:1012E0008093330290933402A0933502B093360278
:1012F00086ED91E09093300280932F0285E992E091
:1013000090933C0280933B0281E592E090933E02F1
:1013100080933D0285EC90E09093400280933F02E1
:1013200084EC90E0909342028093410280EC90E044
:10133000909344028093430281EC90E090934602A4
:101340008093450282EC90E090934802809347029C
:1013500086EC90E090934A028093490284E0809367
:101360004B0283E080934C0287E080934D0285E03E
:1013700080934E0281E080934F0208950E9483067D
:101380000E948D00C3EAD8E00E94D7012097E1F3C4
:101390000E94A308F9CFA1E21A2EAA1BBB1BFD01D4
:1013A0000DC0AA1FBB1FEE1FFF1FA217B307E40744
:1013B000F50720F0A21BB30BE40BF50B661F771F9C
:1013C000881F991F1A9469F760957095809590957C
:1013D0009B01AC01BD01CF010895EE0FFF1F0590E9
:1013E000F491E02D0994FB01DC014150504030F0B4
:1013F0008D910190801919F40020B9F7881B990B81
:061400000895F894FFCFEF
:1014060000FF06FAD5030000FF00FF0073706F634C
:101416004B6548656C6C6F21004469646E277420C7
:1014260066696E6420504E35337820626F6172644F
:1014360000466F756E64206368697020504E3500F3
:101446004669726D77617265207665722E2000534B
:101456007570706F727473200052656164206361E9
:1014660072642023002020007C20426C6F636B2076
:1014760000207C20004D616E75666163747572652F
:101486007220426C6F636B00536563746F722054F5
:101496007261696C6572004461746120426C6F63AD
:1014A6006B00466F756E642000207461677300538D
:1014B600656E7320526573706F6E73653A2030786F
:1014C6000053656C20526573706F6E73653A2030F9
:1014D6007800000000002B08BE06D7070008E707C3
:0214E6002008DC
:00000001FF
