:100000000C9463000C948B000C948B000C948B006C
:100010000C948B000C948B000C948B000C948B0034
:100020000C948B000C948B000C948B000C948B0024
:100030000C948B000C948B000C948B000C948B0014
:100040000C94FB050C948B000C9474080C94B7086A
:100050000C948B000C948B000C948B000C948B00F4
:100060000C948B000C948B00000000070002010030
:100070000003040600000000000000000102040864
:100080001020408001020408102001020408102002
:10009000040404040404040402020202020203032E
:1000A00003030303000000002300260029000000D2
:1000B0000000250028002B0000000000240027007D
:1000C0002A00A801730911241FBECFEFD8E0DEBFBC
:1000D000CDBF11E0A0E0B1E0ECE1F4E102C0059099
:1000E0000D92A83CB107D9F722E0A8ECB1E001C01D
:1000F0001D92A03CB207E1F710E0C6ECD0E004C0CE
:100100002297FE010E94FA09C23CD107C9F70E945A
:10011000C9090C940C0A0C9400006F927F928F9284
:100120009F92AF92BF92CF92DF92EF92FF920F9386
:10013000CF93DF93CDB7DEB7A6970FB6F894DEBFA7
:100140000FBECDBF40E855E260E070E086E192E08E
:100150000E94F20862E171E086E192E00E942407C9
:1001600089EC91E00E94580389EC91E00E947203AF
:100170006B017C01611571058105910539F469E117
:1001800071E086E192E00E940707FFCF61E371E032
:1001900086E192E00E9407074F2D552766277727B3
:1001A00020E130E086E192E00E94D00760E471E057
:1001B00086E192E00E9407074E2D50E060E070E07B
:1001C0002AE030E086E192E00E948F076EE286E14D
:1001D00092E00E9409074D2D50E060E070E02AE0B7
:1001E00030E086E192E00E94D0076FE471E086E1A2
:1001F00092E00E940707B701A601552766277727D7
:1002000020E130E086E192E00E94D00789EC91E0A5
:100210000E94B40360E089EC91E00E94AF044B01BE
:100220005C01611571058105910509F476C069E5E8
:1002300071E086E192E00E9407072AE030E0B50114
:10024000A40186E192E00E94D00786E192E00E943C
:10025000100786E0ECE0F1E0DE01919601900D924E
:100260008A95E1F7FE01719680E03F0181938F5FEF
:100270008031E1F7CE0181966C01EE24E39408E031
:10028000A501940161E089EC91E00E94DA03672BFB
:10029000682B692B09F441C08091C801811111C0FC
:1002A000930148E061E089EC91E00E94740460935E
:1002B000C801662331F065E671E086E192E00E94B4
:1002C00024079E012F5F3F4F48E061E089EC91E0F9
:1002D0000E943404672B682B692BF9F066E771E004
:1002E00086E192E00E942407FE0131967F01F7012A
:1002F00061917F0140E150E086E192E00E949C071D
:100300006DE471E086E192E00E940707E614F704CD
:1003100071F786E192E00E94100764EF71E080E0DF
:1003200090E00E946806A6960FB6F894DEBF0FBE56
:10033000CDBFDF91CF910F91FF90EF90DF90CF90E5
:10034000BF90AF909F908F907F906F900895089589
:100350000F930AE02BE04CE06DE089EC91E00E9405
:10036000B3010F9108950F93CF93DF93EC01802F8A
:1003700069834B832A83088361E00E94630561E0FF
:1003800089810E94630561E08A810E94630560E0C3
:100390008B81DF91CF910F910C946305EF92FF92C7
:1003A0000F931F93CF93DF93EC01E62E61E08981D9
:1003B0000E949C0500E010E0F12C60E089810E9421
:1003C0009C05C701002E02C0959587950A94E2F717
:1003D00080FF02C061E001C060E08A810E949C054C
:1003E00061E089810E949C050F5F1F4F0830110555
:1003F00021F7DF91CF911F910F91FF90EF9008951A
:10040000AF92BF92CF92DF92EF92FF920F931F9322
:10041000CF93DF93EC016B01042F0F5F60E08881C5
:100420000E949C0562E070E080E090E00E94680617
:1004300061E0CE010E94CE0160E0CE010E94CE01BB
:1004400060E0CE010E94CE016FEFCE010E94CE018E
:10045000602FCE010E94CE01602F6195CE010E94D7
:10046000CE0164EDCE010E94CE01A12C83EDB82E09
:1004700010E001501109EA2CF12CE016F10664F4A9
:10048000EC0CFD1CF7016081CE010E94CE01F7014A
:100490008081B80EA394EFCF6B2D6095CE010E94A2
:1004A000CE0160E0CE010E94CE0161E08881DF9143
:1004B000CF911F910F91FF90EF90DF90CF90BF9061
:1004C000AF900C949C05DF92EF92FF920F931F93D5
:1004D000CF93DF93EC0161E089810E949C0500E0ED
:1004E00010E0D12CEE24E394F12C8B810E94D205F4
:1004F000892B39F09701002E01C0220F0A94EAF7E8
:10050000D22A60E089810E949C0561E089810E9475
:100510009C050F5F1F4F0830110539F78D2DDF91B6
:10052000CF911F910F91FF90EF90DF9008951F934F
:10053000CF93DF93EC0160E088810E949C0562E02C
:1005400070E080E090E00E94680662E0CE010E94C8
:10055000CE01CE010E946302182F61E088810E94C3
:100560009C05812FDF91CF911F910895CF92DF924B
:10057000EF92FF920F931F93CF93DF938C01F62E90
:10058000D72EE42E60E0FC0180810E949C0562E091
:1005900070E080E090E00E94680663E0C8010E947D
:1005A000CE01CF2CCF2DDD2D8C2F8C198E1558F42C
:1005B00061E070E080E090E00E946806C8010E945F
:1005C00063028993F1CF61E0F8018081DF91CF91DF
:1005D0001F910F91FF90EF90DF90CF900C949C05AE
:1005E000CF93DF9300D000D000D0CDB7DEB746E088
:1005F000BE016F5F7F4F0E94B60246E050E066E0AA
:1006000071E0CE0101960E94FE0921E0892B09F0DC
:1006100020E0822F26960FB6F894DEBF0FBECDBF26
:10062000DF91CF910895EF92FF920F931F93CF9395
:10063000DF93EC0189010E940002E12CF12CCE0134
:100640000E949702813081F00115110531F08AE096
:10065000E80EF11C0E151F0518F16AE070E080E04D
:1006600090E00E946806EBCFCE010E94F002882342
:10067000B9F0E12CF12CCE010E949702813089F073
:100680000115110531F08AE0E80EF11C0E151F0569
:1006900038F06AE070E080E090E00E946806EBCFFE
:1006A00080E0DF91CF911F910F91FF90EF9008951F
:1006B000CF93DF93EC0160E088810E949C0568EE97
:1006C00073E080E090E00E94680682E08093CD01B4
:1006D00028EE33E041E06DEC71E0CE01DF91CF9187
:1006E0000C941303CF93DF93EC0182E08093CD0150
:1006F00028EE33E041E06DEC71E0CE010E9413037F
:10070000811104C060E070E0CB012BC04CE06DECC7
:1007100071E0CE010E94B60246E050E060E071E078
:100720008DEC91E00E94FE09892B61F76091D30165
:10073000862F90E0A0E0B0E0BA2FA92F982F88274D
:100740002091D401822BBA2FA92F982F882720918E
:10075000D501822B6627782F892F9A2F2091D601D9
:10076000622BDF91CF910895CF93DF93EC0194E159
:100770009093CD0181E08093CE019093CF0180933F
:10078000D00128EE33E044E06DEC71E0CE010E9430
:100790001303882359F048E06DEC71E0CE010E940C
:1007A000B60281E09091D201953109F080E0DF91AD
:1007B000CF910895CF92DF92EF920F93CF93DF9373
:1007C000EC01F60180E48093CD016093CE0181E0DD
:1007D000E81202C080E601C081E68093CF01009359
:1007E000D00180818093D10181818093D201828167
:1007F0008093D30183818093D40184818093D50138
:1008000085818093D6015093D7014093D8013093CE
:10081000D9012093DA0128EE33E04EE06DEC71E06F
:10082000CE010E9413038823A1F048E06DEC71E033
:10083000CE010E94B6028091D301813451F461E06F
:1008400070E080E090E02091D401222331F060E05C
:1008500004C060E070E080E090E0DF91CF910F9104
:10086000EF90DF90CF9008950F931F93CF93DF9376
:10087000EC01890180E48093CD016093CE0180E397
:100880008093CF014093D00128EE33E044E06DEC3B
:1008900071E0CE010E9413038823E9F048E16DEC7A
:1008A00071E0CE010E94B602A5EDB1E0F8018D9194
:1008B000819381E0A53EB807D1F78091D3018134BF
:1008C00051F461E070E080E090E02091D4012223B7
:1008D00031F060E004C060E070E080E090E0DF9123
:1008E000CF911F910F910895CF93DF93EC0180E496
:1008F0008093CD016093CE0180EA8093CF01409335
:10090000D001F901A1EDB1E081918D9381E0A13E8B
:10091000B807D1F728EE33E044E16DEC71E0CE0189
:100920000E9413038823A1F048E06DEC71E0CE0132
:100930000E94B6028091D301813451F461E070E0ED
:1009400080E090E02091D401222331F060E004C0E7
:1009500060E070E080E090E0DF91CF910895CF9269
:10096000DF92EF92FF921F93CF93DF93EC018AE423
:100970008093CD0181E08093CE016093CF0128EE7A
:1009800033E043E06DEC71E0CE010E94130381116E
:1009900005C060E070E080E090E064C044E16DEC90
:1009A00071E0CE010E94B60267E871E086E192E054
:1009B0000E9407074AE050E06091D40186E192E08E
:1009C0000E949C076EE871E086E192E00E94240795
:1009D0008091D4018130E9F6C091D601D0E0DC2FBE
:1009E000CC278091D701C82B64E971E086E192E0C1
:1009F0000E94070740E150E0BE0186E192E00E94BC
:100A0000BA0766EA71E086E192E00E94070740E1DA
:100A100050E06091D80186E192E00E94A30710E0C7
:100A2000C12CD12C76018091D9011817C8F4FE2C65
:100A3000ED2CDC2CCC24C12FD0E0C652DE4F8881B7
:100A4000C82A63EB71E086E192E00E94070740E16B
:100A500050E0688186E192E00E949C071F5FE3CF2F
:100A6000B601C701DF91CF911F91FF90EF90DF900A
:100A7000CF900895833081F028F4813099F082304E
:100A8000A1F008958630A9F08730B9F08430D1F410
:100A9000809180008F7D03C0809180008F7780934C
:100AA0008000089584B58F7702C084B58F7D84BDA2
:100AB00008958091B0008F7703C08091B0008F7D42
:100AC0008093B0000895CF93DF9390E0FC01E45849
:100AD000FF4F2491FC01E057FF4F8491882349F197
:100AE00090E0880F991FFC01E854FF4FA591B49145
:100AF00082559F4FFC01C591D4919FB7611108C0E9
:100B0000F8948C91209582238C93888182230AC04B
:100B1000623051F4F8948C91322F309583238C936A
:100B20008881822B888304C0F8948C91822B8C93CB
:100B30009FBFDF91CF9108950F931F93CF93DF93C2
:100B40001F92CDB7DEB7282F30E0F901E859FF4FEB
:100B50008491F901E458FF4F1491F901E057FF4FD8
:100B600004910023C9F0882321F069830E943A058B
:100B70006981E02FF0E0EE0FFF1FE255FF4FA591D6
:100B8000B4919FB7F8948C91611103C010958123A3
:100B900001C0812B8C939FBF0F90DF91CF911F914C
:100BA0000F910895CF93DF93282F30E0F901E85992
:100BB000FF4F8491F901E458FF4FD491F901E057B8
:100BC000FF4FC491CC2391F081110E943A05EC2F84
:100BD000F0E0EE0FFF1FEC55FF4FA591B4912C9163
:100BE0002D2381E090E021F480E002C080E090E0DD
:100BF000DF91CF9108951F920F920FB60F9211249B
:100C00002F933F938F939F93AF93BF9380910E0247
:100C100090910F02A0911002B091110230910D023B
:100C200023E0230F2D3720F40196A11DB11D05C02F
:100C300026E8230F0296A11DB11D20930D0280937B
:100C40000E0290930F02A0931002B09311028091B4
:100C5000120290911302A0911402B0911502019614
:100C6000A11DB11D8093120290931302A093140250
:100C7000B0931502BF91AF919F918F913F912F91AA
:100C80000F900FBE0F901F9018953FB7F89480916A
:100C9000120290911302A0911402B091150226B590
:100CA000A89B05C02F3F19F00196A11DB11D3FBFA4
:100CB0006627782F892F9A2F620F711D811D911D34
:100CC00042E0660F771F881F991F4A95D1F7089554
:100CD000CF92DF92EF92FF92CF93DF936B017C0173
:100CE0000E944506EB01C114D104E104F10479F03E
:100CF0000E9445066C1B7D0B683E7340A0F381E0AB
:100D0000C81AD108E108F108C851DC4FECCFDF91D7
:100D1000CF91FF90EF90DF90CF900895789484B5B5
:100D2000826084BD84B5816084BD85B5826085BDE7
:100D300085B5816085BDEEE6F0E0808181608083CD
:100D4000E1E8F0E0108280818260808380818160B0
:100D50008083E0E8F0E0808181608083E1EBF0E077
:100D6000808184608083E0EBF0E08081816080831B
:100D7000EAE7F0E080818460808380818260808304
:100D80008081816080838081806880831092C1002F
:100D90000895CF92DF92EF92FF920F931F93CF931C
:100DA000DF936C017A01EB01E60EF71E00E010E024
:100DB000CE15DF0561F06991D601ED91FC910190AE
:100DC000F081E02DC6010995080F191FF1CFC80168
:100DD000DF91CF911F910F91FF90EF90DF90CF9017
:100DE00008956115710581F0DB010D900020E9F790
:100DF000AD0141505109461B570BDC01ED91FC91AF
:100E00000280F381E02D099480E090E008950C9435
:100E1000F106DC01ED91FC910190F081E02D099447
:100E20000F931F93CF93DF93EC016DE00E940907AE
:100E30008C016AE0CE010E940907800F911FDF91AB
:100E4000CF911F910F9108950F931F93CF93DF932D
:100E5000EC010E94F1068C01CE010E941007800F68
:100E6000911FDF91CF911F910F9108958F929F92C3
:100E7000AF92BF92CF92DF92EF92FF920F931F93A8
:100E8000CF93DF93CDB7DEB7A1970FB6F894DEBF4F
:100E90000FBECDBF7C01C42EE52FCB01D22E19A2EF
:100EA00021E02D1510F02AE0D22E8E010F5D1F4F8C
:100EB0008D2C912CA12CB12C6C2D7E2FA501940191
:100EC0000E94D6098C2DD29E80191124015011093F
:100ED0008A3014F4805D01C0895CF801808321159B
:100EE00031054105510521F0C22EE32FCA01E4CF9F
:100EF000B801C7010E94F106A1960FB6F894DEBFB3
:100F00000FBECDBFDF91CF911F910F91FF90EF905A
:100F1000DF90CF90BF90AF909F908F900895211554
:100F2000310541F4DC01ED91FC910190F081E02D5F
:100F3000642F09940C9436079A01462F50E060E024
:100F400070E00C948F070F931F93CF93DF93EC0106
:100F50009A01462F50E060E070E00E948F078C01FC
:100F6000CE010E941007800F911FDF91CF911F913A
:100F70000F9108950F931F93CF93DF93EC019A0184
:100F8000AB0160E070E00E948F078C01CE010E94EF
:100F90001007800F911FDF91CF911F910F9108953E
:100FA0000F931F93CF93DF93EC010E948F078C0167
:100FB000CE010E941007800F911FDF91CF911F91EA
:100FC0000F910895FC0124853585F901E05CFF4F00
:100FD00080819181329620813181821B930B8F73A6
:100FE00099270895FC0184859585FC01E05CFF4FFD
:100FF000408151813296208131814217530741F05F
:101000000190F081E02DE80FF91F808190E00895B4
:101010008FEF9FEF0895FC0184859585FC01E05CCE
:10102000FF4F408151813296208131814217530711
:1010300079F0A081B181A80FB91F8C9120813181F5
:101040002F5F3F4F2F7333273183208390E0089524
:101050008FEF9FEF0895FC0181A1882329F0A489D7
:10106000B5898C9186FFFBCF11A20895CF93DF93B2
:10107000FC0126853785D901A05CBF4F8D919C91DD
:10108000119701968F739927E901CE5BDF4F488155
:10109000598184179507D9F30D90BC91A02DA20F0B
:1010A000B31F6C93A685B785A05CBF4F11969C9328
:1010B0008E93A689B7892C9181E090E0078C02C0BD
:1010C000880F991F0A94E2F7282B2C9381E081A3C3
:1010D0000488F589E02D80818064808381E090E040
:1010E000DF91CF91089508951F920F920FB60F923E
:1010F00011242F933F934F938F939F93EF93FF93DD
:101100008091C00082FD1CC04091C6008091BC024D
:101110009091BD0201968F7399272091BE02309164
:10112000BF028217930771F0E091BC02F091BD02FB
:10113000E458FD4F40839093BD028093BC0202C0EF
:101140008091C600FF91EF919F918F914F913F91B8
:101150002F910F900FBE0F901F90189586E192E08F
:101160000E94E207892B11F00C94730808951F92D6
:101170000F920FB60F9211242F933F938F939F934B
:10118000EF93FF93209178023091790280917A0257
:1011900090917B022817390731F48091C1008F7D2F
:1011A0008093C10014C0E0917A02F0917B02E85C68
:1011B000FD4F208180917A0290917B0201968F737E
:1011C000992790937B0280937A022093C600FF9127
:1011D000EF919F918F913F912F910F900FBE0F90A4
:1011E0001F901895CF92DF92EF92FF92CF93DF93EB
:1011F000EC016A017B01411581EE5807610571051B
:10120000F9F0EC89FD8981E090E008A002C0880F28
:10121000991F0A94E2F7808360E079E08DE390E023
:10122000A70196010E94D6092150310941095109AF
:101230005695479537952795211580E1380798F001
:10124000EC89FD89108260E874E88EE190E0A701E6
:1012500096010E94D609215031094109510956953C
:10126000479537952795E889F9893083EA89FB897D
:10127000208319A2EE89FF89408181E090E09C01E2
:101280000C8C02C0220F331F0A94E2F7422B4083DA
:10129000EE89FF8940819C010D8C02C0220F331F13
:1012A0000A94E2F7422B4083EE89FF8940819C013A
:1012B0000E8C02C0220F331F0A94E2F7422B4083A8
:1012C000EE89FF8920810F8C02C0880F991F0A9434
:1012D000E2F7809582238083DF91CF91FF90EF909A
:1012E000DF90CF900895109219021092180288EEA4
:1012F00093E0A0E0B0E080931A0290931B02A093C9
:101300001C02B0931D028BEB91E090931702809327
:1013100016028CE792E0909323028093220288E3E6
:1013200092E0909325028093240285EC90E09093C4
:1013300027028093260284EC90E090932902809308
:10134000280280EC90E090932B0280932A0281EC9B
:1013500090E090932D0280932C0282EC90E0909389
:101360002F0280932E0286EC90E0909331028093BE
:10137000300284E08093320283E08093330287E07E
:101380008093340285E08093350281E080933602B9
:1013900008950E948E060E948D00CEEAD8E00E9439
:1013A000A7012097E1F30E94AE08F9CFA1E21A2E1F
:1013B000AA1BBB1BFD010DC0AA1FBB1FEE1FFF1FF9
:1013C000A217B307E407F50720F0A21BB30BE40B49
:1013D000F50B661F771F881F991F1A9469F7609590
:1013E0007095809590959B01AC01BD01CF0108954A
:1013F000EE0FFF1F0590F491E02D0994FB01DC0135
:101400004150504030F08D910190801919F4002026
:0C141000B9F7881B990B0895F894FFCFE2
:10141C0000FF06FAD5030000FF00FF00FFFFFFFFEF
:10142C00FFFF48656C6C6F21004469646E27742063
:10143C0066696E6420504E35337820626F61726439
:10144C0000466F756E64206368697020504E3500DD
:10145C004669726D77617265207665722E20005335
:10146C007570706F727473200052656164206361D3
:10147C007264202300577269746520537563636529
:10148C00737366756C005265616420626C6F636B7C
:10149C0020307830383A00466F756E642000207426
:1014AC006167730053656E7320526573706F6E7352
:1014BC00653A2030780053656C20526573706F6EFE
:1014CC0073653A20307800000000003608C906E247
:0814DC00070B08F2072B0800C2
:00000001FF
