:100000000C9463000C948B000C948B000C948B006C
:100010000C948B000C948B000C948B000C948B0034
:100020000C948B000C948B000C948B000C948B0024
:100030000C948B000C948B000C948B000C948B0014
:100040000C9409080C948B000C94820A0C94C50A39
:100050000C948B000C948B000C948B000C948B00F4
:100060000C948B000C948B00000000070002010030
:100070000003040600000000000000000102040864
:100080001020408001020408102001020408102002
:10009000040404040404040402020202020203032E
:1000A00003030303000000002300260029000000D2
:1000B0000000250028002B0000000000240027007D
:1000C0002A00B603810B11241FBECFEFD8E0DEBF9C
:1000D000CDBF13E0A0E0B1E0E8E3F8E102C0059095
:1000E0000D92A63CB107D9F724E0A6ECB3E001C01D
:1000F0001D92AD3BB207E1F710E0C6ECD0E004C0C2
:100100002297FE010E94080CC23CD107C9F70E9449
:10011000D70B0C941A0C0C9400004F925F926F92C4
:100120007F928F929F92AF92BF92CF92DF92EF9287
:10013000FF920F931F93CF93DF93CDB7DEB7E09776
:100140000FB6F894DEBF0FBECDBF40E855E260E0C9
:1001500070E083E194E00E94000B6EE471E083E1C3
:1001600094E00E94320986EC93E00E94660586ECDA
:1001700093E00E9480054B015C01611571058105CA
:100180009105A9F36CE671E083E194E00E94150902
:100190004B2D55276627772720E130E083E194E057
:1001A0000E94DE096BE771E083E194E00E9415098B
:1001B0004A2D50E060E070E02AE030E083E194E016
:1001C0000E949D096EE283E194E00E941709492D87
:1001D00050E060E070E02AE030E083E194E00E94CB
:1001E000DE096AE871E083E194E00E941509B50137
:1001F000A40155276627772720E130E083E194E0CA
:100200000E94DE0986EC93E00E94C20560E086EC65
:1002100093E00E94BD062B013C016115710581052B
:100220009105A1F364E971E083E194E00E9415096E
:100230002AE030E0B301A20183E194E00E94DE09EC
:1002400069EA71E083E194E00E9415094AE050E018
:1002500063E083E194E00E94AA0960EC71E083E12D
:1002600094E00E94320956E3C52E51E0D52EEE24CB
:10027000E39403E0A301920161E086EC93E00E9425
:10028000E805672B682B692B09F4E8C067EC71E07F
:1002900083E194E00E94320966EF71E083E194E02B
:1002A0000E9415098E010F5D1F4F80E1D8011D923C
:1002B0008A95E9F7980143E061E086EC93E00E94BB
:1002C0004206672B682B692B09F4F0C16EE372E0DC
:1002D00083E194E00E9432096AE072E083E194E0F5
:1002E0000E9415096E01B1E3CB0ED11C580169EDD6
:1002F00072E083E194E00E941509F50161915F01CC
:1003000040E150E083E194E00E94AA09AC14BD04EE
:1003100071F783E194E00E941E0968E172E083E1D5
:1003200094E00E9415095E01F1E1AF0EB11C80E17D
:10033000D5011D928A95E9F7D501F80181918D9338
:10034000EC15FD05D9F7ECE3F1E080E391E0BE01A7
:10035000655E7F4F95014191D9014D939D01DC016F
:100360004D91CD01DB014D93BD01B1E0E234FB07BE
:1003700091F76DE372E083E194E00E94320969E451
:1003800072E083E194E00E941509950143E061E089
:1003900086EC93E00E948206672B682B692B09F498
:1003A00085C16EE372E083E194E00E94320966EF5A
:1003B00071E083E194E00E9415098E010F5F1F4FE9
:1003C00080E1F80111928A95E9F7980143E061E034
:1003D00086EC93E00E944206672B682B692B09F498
:1003E00065C16EE372E083E194E00E9432096AE045
:1003F00072E083E194E00E941509480169ED72E022
:1004000083E194E00E941509D4016D914D0140E112
:1004100050E083E194E00E94AA098A149B0471F7DA
:1004200083E194E00E941E09198A1A8A1B8A1C8A99
:100430001D8A1E8AD401F80110E091918D919817C0
:1004400051F06DE572E083E194E00E9415094AE005
:1004500050E0612F4CC11F5F103179F710E040E18F
:10046000F42EFE0131965F014E01F1E18F0E911CD9
:1004700068E772E083E194E00E9415094AE050E0E9
:10048000612F83E194E00E94AA0960EC71E083E1AE
:1004900094E00E9432093CE3C32E31E0D32EEE24D7
:1004A000E394012FA301920161E086EC93E00E94A6
:1004B000E805672B682B692B09F48CC06DE872E0A6
:1004C00083E194E00E94320967EB72E083E194E0FB
:1004D0000E941509112339F0113041F01230F1F466
:1004E00020E031E005C020E231E002C020E131E04F
:1004F0002115310599F0412F61E086EC93E00E94CF
:100500008206672B682B692B19F06EE372E002C03C
:1005100062E372E083E194E00E94320969EC72E0E8
:1005200083E194E00E941509D501EF2D1D92EA9513
:10053000E9F79501412F61E086EC93E00E944206C5
:10054000672B682B692B09F4B1C06EE372E083E17D
:1005500094E00E9432096BED72E083E194E00E9426
:100560001509650169ED72E083E194E00E941509C7
:10057000D6016D916D0140E150E083E194E00E946D
:10058000AA09C814D90471F783E194E00E941E09F6
:10059000112339F0113041F01230A1F480E091E0E4
:1005A00005C080E291E002C080E191E0009751F047
:1005B000DC01F50100E091918D9198138FC00F5FE0
:1005C0000031C9F71F5F143009F052CF10E020E16D
:1005D000F22E03C067EE72E0ADC061E073E083E12C
:1005E00094E00E9415094AE050E0612F83E194E015
:1005F0000E94AA0960EC71E083E194E00E94320954
:1006000080E3C82E81E0D82E92E0E92E012FA301CD
:10061000920161E086EC93E00E94E805672B682B6D
:10062000692B09F485C067E173E083E194E00E94DF
:10063000320969EC72E083E194E00E941509F5014A
:100640004F2D11924A95E9F79501412F61E086EC13
:1006500093E00E944206672B682B692B39F16EE309
:1006600072E083E194E00E9432096BED72E083E175
:1006700094E00E941509650169ED72E083E194E060
:100680000E941509D6016D916D0140E150E083E1B2
:1006900094E00E94AA09C814D90471F783E194E098
:1006A0000E941E09812F837059F003C062E372E03B
:1006B00041C0813041F0823031F580E091E005C0E9
:1006C00080E291E002C080E191E00097E1F0FC015E
:1006D000D50100E09D918191981791F06DE572E050
:1006E00083E194E00E9415094AE050E0602F83E125
:1006F00094E00E94AA0983E194E00E941E091EC0B2
:100700000F5F003139F71F5F103409F066CF6CE5D9
:1007100073E083E194E00E9415092AE030E0B30120
:10072000A20183E194E00E949D0961E773E002C0A9
:1007300061E473E083E194E00E943209E0960FB631
:10074000F894DEBF0FBECDBFDF91CF911F910F9107
:10075000FF90EF90DF90CF90BF90AF909F908F90E1
:100760007F906F905F904F90089508950F930AE0E7
:100770002BE04CE06DE086EC93E00E94C1030F910A
:1007800008950F93CF93DF93EC01802F69834B8300
:100790002A83088361E00E94710761E089810E94D9
:1007A000710761E08A810E94710760E08B81DF91AF
:1007B000CF910F910C947107EF92FF920F931F93BB
:1007C000CF93DF93EC01E62E61E089810E94AA07B6
:1007D00000E010E0F12C60E089810E94AA07C701C7
:1007E000002E02C0959587950A94E2F780FF02C01B
:1007F00061E001C060E08A810E94AA0761E089810E
:100800000E94AA070F5F1F4F0830110521F7DF91E3
:10081000CF911F910F91FF90EF900895AF92BF92EB
:10082000CF92DF92EF92FF920F931F93CF93DF93BC
:10083000EC016B01042F0F5F60E088810E94AA0722
:1008400062E070E080E090E00E94760861E0CE0116
:100850000E94DC0360E0CE010E94DC0360E0CE0178
:100860000E94DC036FEFCE010E94DC03602FCE01FB
:100870000E94DC03602F6195CE010E94DC0364EDD1
:10088000CE010E94DC03A12C83EDB82E10E00150B4
:100890001109EA2CF12CE016F10664F4EC0CFD1CB5
:1008A000F7016081CE010E94DC03F7018081B80E60
:1008B000A394EFCF6B2D6095CE010E94DC0360E026
:1008C000CE010E94DC0361E08881DF91CF911F910E
:1008D0000F91FF90EF90DF90CF90BF90AF900C946E
:1008E000AA07DF92EF92FF920F931F93CF93DF93AC
:1008F000EC0161E089810E94AA0700E010E0D12CA0
:10090000EE24E394F12C8B810E94E007892B39F0CF
:100910009701002E01C0220F0A94EAF7D22A60E064
:1009200089810E94AA0761E089810E94AA070F5F5E
:100930001F4F0830110539F78D2DDF91CF911F9191
:100940000F91FF90EF90DF9008951F93CF93DF9367
:10095000EC0160E088810E94AA0762E070E080E01C
:1009600090E00E94760862E0CE010E94DC03CE0196
:100970000E947104182F61E088810E94AA07812FCC
:10098000DF91CF911F910895CF92DF92EF92FF9266
:100990000F931F93CF93DF938C01F62ED72EE42E67
:1009A00060E0FC0180810E94AA0762E070E080E0C4
:1009B00090E00E94760863E0C8010E94DC03CF2C1F
:1009C000CF2DDD2D8C2F8C198E1558F461E070E041
:1009D00080E090E00E947608C8010E94710489932B
:1009E000F1CF61E0F8018081DF91CF911F910F91EC
:1009F000FF90EF90DF90CF900C94AA07CF93DF93F6
:100A000000D000D000D0CDB7DEB746E0BE016F5FAA
:100A10007F4F0E94C40446E050E068E471E0CE01DC
:100A200001960E940C0C21E0892B09F020E0822F16
:100A300026960FB6F894DEBF0FBECDBFDF91CF91E3
:100A40000895EF92FF920F931F93CF93DF93EC01E2
:100A500089010E940E04E12CF12CCE010E94A50414
:100A6000813081F00115110531F08AE0E80EF11CAA
:100A70000E151F0518F16AE070E080E090E00E941A
:100A80007608EBCFCE010E94FE048823B9F0E12C5A
:100A9000F12CCE010E94A504813089F001151105C9
:100AA00031F08AE0E80EF11C0E151F0538F06AE0FF
:100AB00070E080E090E00E947608EBCF80E0DF916C
:100AC000CF911F910F91FF90EF900895CF93DF93F7
:100AD000EC0160E088810E94AA0768EE73E080E084
:100AE00090E00E94760882E08093CA0328EE33E00B
:100AF00041E06AEC73E0CE01DF91CF910C942105C7
:100B0000CF93DF93EC0182E08093CA0328EE33E0B9
:100B100041E06AEC73E0CE010E942105811104C01E
:100B200060E070E0CB012BC04CE06AEC73E0CE01DA
:100B30000E94C40446E050E062E471E08AEC93E075
:100B40000E940C0C892B61F76091D003862F90E0F6
:100B5000A0E0B0E0BA2FA92F982F88272091D103C9
:100B6000822BBA2FA92F982F88272091D203822B6E
:100B70006627782F892F9A2F2091D303622BDF913C
:100B8000CF910895CF93DF93EC0194E19093CA0342
:100B900081E08093CB039093CC038093CD0328EE28
:100BA00033E044E06AEC73E0CE010E942105882323
:100BB00059F048E06AEC73E0CE010E94C40481E081
:100BC0009091CF03953109F080E0DF91CF910895A6
:100BD000CF92DF92EF920F93CF93DF93EC01F60168
:100BE00080E48093CA036093CB0381E0E81202C0E3
:100BF00080E601C081E68093CC030093CD03808121
:100C00008093CE0381818093CF0382818093D00330
:100C100083818093D10384818093D20385818093E3
:100C2000D3035093D4034093D5033093D60320933A
:100C3000D70328EE33E04EE06AEC73E0CE010E9469
:100C400021058823A1F048E06AEC73E0CE010E9400
:100C5000C4048091D003813451F461E070E080E0FD
:100C600090E02091D103222331F060E004C060E0E5
:100C700070E080E090E0DF91CF910F91EF90DF90F6
:100C8000CF9008950F931F93CF93DF93EC018901C9
:100C900080E48093CA036093CB0380E38093CC030A
:100CA0004093CD0328EE33E044E06AEC73E0CE01DC
:100CB0000E9421058823E9F048E16AEC73E0CE0147
:100CC0000E94C404A2EDB3E0F8018D91819383E00A
:100CD000A23EB807D1F78091D003813451F461E08E
:100CE00070E080E090E02091D103222331F060E0B9
:100CF00004C060E070E080E090E0DF91CF911F9150
:100D00000F910895CF93DF93EC0180E48093CA03A1
:100D10006093CB0380EA8093CC034093CD03F90129
:100D2000AEECB3E081918D9383E0AE3DB807D1F78F
:100D300028EE33E044E16AEC73E0CE010E94210525
:100D40008823A1F048E06AEC73E0CE010E94C4045D
:100D50008091D003813451F461E070E080E090E054
:100D60002091D103222331F060E004C060E070E004
:100D700080E090E0DF91CF910895CF92DF92EF92E3
:100D8000FF921F93CF93DF93EC018AE48093CA0311
:100D900081E08093CB036093CC0328EE33E043E003
:100DA0006AEC73E0CE010E942105811105C060E06C
:100DB00070E080E090E064C044E16AEC73E0CE0152
:100DC0000E94C40466E873E083E194E00E94150980
:100DD0004AE050E06091D10383E194E00E94AA09C7
:100DE0006DE873E083E194E00E9432098091D103C1
:100DF0008130E9F6C091D303D0E0DC2FCC2780917D
:100E0000D403C82B63E973E083E194E00E941509E1
:100E100040E150E0BE0183E194E00E94C80965EA28
:100E200073E083E194E00E94150940E150E0609195
:100E3000D50383E194E00E94B10910E0C12CD12CCC
:100E400076018091D6031817C8F4FE2CED2CDC2C0B
:100E5000CC24C12FD0E0C952DC4F8881C82A62EB74
:100E600073E083E194E00E94150940E150E068815D
:100E700083E194E00E94AA091F5FE3CFB601C70196
:100E8000DF91CF911F91FF90EF90DF90CF90089569
:100E9000833081F028F4813099F08230A1F00895F8
:100EA0008630A9F08730B9F08430D1F48091800089
:100EB0008F7D03C0809180008F778093800008959C
:100EC00084B58F7702C084B58F7D84BD08958091ED
:100ED000B0008F7703C08091B0008F7D8093B00009
:100EE0000895CF93DF9390E0FC01E458FF4F2491E5
:100EF000FC01E057FF4F8491882349F190E0880F6F
:100F0000991FFC01E854FF4FA591B49182559F4F62
:100F1000FC01C591D4919FB7611108C0F8948C91E0
:100F2000209582238C93888182230AC0623051F4F9
:100F3000F8948C91322F309583238C938881822B67
:100F4000888304C0F8948C91822B8C939FBFDF918F
:100F5000CF9108950F931F93CF93DF931F92CDB737
:100F6000DEB7282F30E0F901E859FF4F8491F901ED
:100F7000E458FF4F1491F901E057FF4F049100230B
:100F8000C9F0882321F069830E9448076981E02F16
:100F9000F0E0EE0FFF1FE255FF4FA591B4919FB710
:100FA000F8948C91611103C01095812301C0812BAD
:100FB0008C939FBF0F90DF91CF911F910F91089558
:100FC000CF93DF93282F30E0F901E859FF4F849148
:100FD000F901E458FF4FD491F901E057FF4FC49154
:100FE000CC2391F081110E944807EC2FF0E0EE0F26
:100FF000FF1FEC55FF4FA591B4912C912D2381E05B
:1010000090E021F480E002C080E090E0DF91CF9199
:1010100008951F920F920FB60F9211242F933F93B2
:101020008F939F93AF93BF9380910B0490910C0487
:10103000A0910D04B0910E0430910A0423E0230F17
:101040002D3720F40196A11DB11D05C026E8230F00
:101050000296A11DB11D20930A0480930B04909366
:101060000C04A0930D04B0930E0480910F04909192
:101070001004A0911104B09112040196A11DB11D9C
:1010800080930F0490931004A0931104B093120462
:10109000BF91AF919F918F913F912F910F900FBE74
:1010A0000F901F9018953FB7F89480910F0490917E
:1010B0001004A0911104B091120426B5A89B05C09C
:1010C0002F3F19F00196A11DB11D3FBF6627782F54
:1010D000892F9A2F620F711D811D911D42E0660FAD
:1010E000771F881F991F4A95D1F70895CF92DF92F5
:1010F000EF92FF92CF93DF936B017C010E94530824
:10110000EB01C114D104E104F10479F00E94530809
:101110006C1B7D0B683E7340A0F381E0C81AD108B8
:10112000E108F108C851DC4FECCFDF91CF91FF907F
:10113000EF90DF90CF900895789484B5826084BD5D
:1011400084B5816084BD85B5826085BD85B58160CB
:1011500085BDEEE6F0E0808181608083E1E8F0E02B
:101160001082808182608083808181608083E0E85A
:10117000F0E0808181608083E1EBF0E08081846039
:101180008083E0EBF0E0808181608083EAE7F0E03B
:10119000808184608083808182608083808181609F
:1011A00080838081806880831092C1000895CF92EF
:1011B000DF92EF92FF920F931F93CF93DF936C0117
:1011C0007A01EB01E60EF71E00E010E0CE15DF0518
:1011D00061F06991D601ED91FC910190F081E02DD3
:1011E000C6010995080F191FF1CFC801DF91CF91F2
:1011F0001F910F91FF90EF90DF90CF9008956115B0
:10120000710581F0DB010D900020E9F7AD0141503F
:101210005109461B570BDC01ED91FC910280F381D3
:10122000E02D099480E090E008950C94FF08DC0123
:10123000ED91FC910190F081E02D09940F931F93A3
:10124000CF93DF93EC016DE00E9417098C016AE0F7
:10125000CE010E941709800F911FDF91CF911F913E
:101260000F9108950F931F93CF93DF93EC010E948A
:10127000FF088C01CE010E941E09800F911FDF9193
:10128000CF911F910F9108958F929F92AF92BF922D
:10129000CF92DF92EF92FF920F931F93CF93DF9342
:1012A000CDB7DEB7A1970FB6F894DEBF0FBECDBFA6
:1012B0007C01C42EE52FCB01D22E19A221E02D15E1
:1012C00010F02AE0D22E8E010F5D1F4F8D2C912C35
:1012D000A12CB12C6C2D7E2FA50194010E94E40B52
:1012E0008C2DD29E80191124015011098A3014F4DA
:1012F000805D01C0895CF8018083211531054105BD
:10130000510521F0C22EE32FCA01E4CFB801C70175
:101310000E94FF08A1960FB6F894DEBF0FBECDBFA6
:10132000DF91CF911F910F91FF90EF90DF90CF90C1
:10133000BF90AF909F908F9008952115310541F493
:10134000DC01ED91FC910190F081E02D642F099476
:101350000C9444099A01462F50E060E070E00C9430
:101360009D090F931F93CF93DF93EC019A01462FB2
:1013700050E060E070E00E949D098C01CE010E9467
:101380001E09800F911FDF91CF911F910F9108953A
:101390000F931F93CF93DF93EC019A01AB0160E0B1
:1013A00070E00E949D098C01CE010E941E09800FF1
:1013B000911FDF91CF911F910F9108950F931F936C
:1013C000CF93DF93EC010E949D098C01CE010E9416
:1013D0001E09800F911FDF91CF911F910F910895EA
:1013E000FC0124853585F901E05CFF4F8081918106
:1013F000329620813181821B930B8F739927089538
:10140000FC0184859585FC01E05CFF4F40815181A2
:101410003296208131814217530741F00190F081CB
:10142000E02DE80FF91F808190E008958FEF9FEF86
:101430000895FC0184859585FC01E05CFF4F4081A7
:1014400051813296208131814217530779F0A08172
:10145000B181A80FB91F8C91208131812F5F3F4F3F
:101460002F7333273183208390E008958FEF9FEF10
:101470000895FC0181A1882329F0A489B5898C9164
:1014800086FFFBCF11A20895CF93DF93FC01268541
:101490003785D901A05CBF4F8D919C911197019622
:1014A0008F739927E901CE5BDF4F488159818417FB
:1014B0009507D9F30D90BC91A02DA20FB31F6C938B
:1014C000A685B785A05CBF4F11969C938E93A68985
:1014D000B7892C9181E090E0078C02C0880F991F9A
:1014E0000A94E2F7282B2C9381E081A30488F589E4
:1014F000E02D80818064808381E090E0DF91CF9156
:10150000089508951F920F920FB60F9211242F93F2
:101510003F934F938F939F93EF93FF938091C000DE
:1015200082FD1CC04091C6008091B9049091BA041C
:1015300001968F7399272091BB043091BC048217C8
:10154000930771F0E091B904F091BA04E758FB4FAA
:1015500040839093BA048093B90402C08091C6007E
:10156000FF91EF919F918F914F913F912F910F900C
:101570000FBE0F901F90189583E194E00E94F00930
:10158000892B11F00C94810A08951F920F920FB6C7
:101590000F9211242F933F938F939F93EF93FF9379
:1015A00020917504309176048091770490917804AD
:1015B0002817390731F48091C1008F7D8093C100D5
:1015C00014C0E0917704F0917804EB5CFB4F20812C
:1015D000809177049091780401968F739927909366
:1015E0007804809377042093C600FF91EF919F9138
:1015F0008F913F912F910F900FBE0F901F901895D4
:10160000CF92DF92EF92FF92CF93DF93EC016A01CA
:101610007B01411581EE580761057105F9F0EC89F0
:10162000FD8981E090E008A002C0880F991F0A940C
:10163000E2F7808360E079E08DE390E0A701960116
:101640000E94E40B215031094109510956954795F3
:1016500037952795211580E1380798F0EC89FD89A9
:10166000108260E874E88EE190E0A70196010E9484
:10167000E40B215031094109510956954795379599
:101680002795E889F9893083EA89FB89208319A2A3
:10169000EE89FF89408181E090E09C010C8C02C0C2
:1016A000220F331F0A94E2F7422B4083EE89FF8911
:1016B00040819C010D8C02C0220F331F0A94E2F777
:1016C000422B4083EE89FF8940819C010E8C02C031
:1016D000220F331F0A94E2F7422B4083EE89FF89E1
:1016E00020810F8C02C0880F991F0A94E2F7809521
:1016F00082238083DF91CF91FF90EF90DF90CF9096
:101700000895109216041092150488EE93E0A0E05C
:10171000B0E08093170490931804A0931904B09339
:101720001A048AEB93E0909314048093130489E7DE
:1017300094E09093200480931F0485E394E09093B9
:1017400022048093210485EC90E0909324048093FC
:10175000230484EC90E0909326048093250480EC8D
:1017600090E0909328048093270481EC90E090937C
:101770002A048093290482EC90E090932C048093B7
:101780002B0486EC90E090932E0480932D0484E04B
:1017900080932F0483E08093300487E080933104AA
:1017A00085E08093320481E08093330408950E94A1
:1017B0009C080E948D00CCEBDAE00E94B5032097D4
:1017C000E1F30E94BC0AF9CFA1E21A2EAA1BBB1BAF
:1017D000FD010DC0AA1FBB1FEE1FFF1FA217B307FD
:1017E000E407F50720F0A21BB30BE40BF50B661F13
:1017F000771F881F991F1A9469F7609570958095D7
:1018000090959B01AC01BD01CF010895EE0FFF1F24
:101810000590F491E02D0994FB01DC01415050400A
:1018200030F08D910190801919F40020B9F7881BD0
:08183000990B0895F894FFCF15
:101838004C65426F6D62486F6D6553797374656D61
:1018480043616D626F6E2020202020202020202000
:101858004F6C697669657220202020202020202086
:1018680067656E65736967656E65736973706F63C5
:101878004B6500FF06FAD5030000FF00FF0057651F
:101888006C636F6D6520746F204C42204E46432078
:101898004D69726166652070726F6700466F756E7C
:1018A80064206368697020504E35004669726D7710
:1018B800617265207665722E2000537570706F72A4
:1018C800747320002323232323205265616420633B
:1018D8006172642049443D20002A2A2A2A2A205776
:1018E800726974696E6720547261696C6572200050
:1018F800202A2A2A2A2A0041757468656E74696646
:1019080069636174696F6E20737563636573736669
:10191800756C20776974682064656661756C7420DD
:101928006B657920410052656164696E6720747245
:1019380061696C65722E2E2E2000526561642074D8
:101948007261696C65723A0047656E6572617469A7
:101958006E67206E657720747261696C65722E2ED1
:101968002E004641494C4544202121210020737511
:10197800636365737366756C0057726974696E6723
:1019880020747261696C65722E2E2E2000436F6D73
:1019980070617269736F6E206661696C6564206F2F
:1019A8006E206279746520002A2A2A2A2A20577212
:1019B8006974696E6720426C6F636B2000417574AF
:1019C80068656E74696669636174696F6E207375A2
:1019D800636365737366756C2077697468206C62DD
:1019E800206B657920410057726974696E672062BF
:1019F8006C6F636B2E2E2E200052656164696E67D2
:101A080020626C6F636B2E2E2E200052656164205D
:101A1800626C6F636B3A004641494C454420746FD1
:101A280020777269746520626C6F636B20212121B5
:101A3800002A2A2A2A2A20436865636B696E672070
:101A4800426C6F636B200041757468656E746966DB
:101A580069636174696F6E20737563636573736618
:101A6800756C2077697468206C62206B65792042F8
:101A7800004641494C454420746F206363686563A0
:101A88006B20626C6F636B202121210023232323A9
:101A980023204361726420776974682049443D209B
:101AA8000020636F72726563746C7920757064616D
:101AB800746564202100466F756E6420002074618F
:101AC80067730053656E7320526573706F6E73652C
:101AD8003A2030780053656C20526573706F6E73CE
:101AE800653A2030780000000000440AD708F00961
:061AF800190A000A390A78
:00000001FF
